{
  "_format": "hh-sol-artifact-1",
  "contractName": "Mines",
  "sourceName": "contracts/Mines.sol",
  "abi": [
    {
      "anonymous": false,
      "inputs": [
        {
          "indexed": true,
          "internalType": "address",
          "name": "player",
          "type": "address"
        },
        {
          "indexed": false,
          "internalType": "uint256",
          "name": "amount",
          "type": "uint256"
        }
      ],
      "name": "BetPlaced",
      "type": "event"
    },
    {
      "stateMutability": "payable",
      "type": "fallback"
    },
    {
      "inputs": [],
      "name": "bet",
      "outputs": [],
      "stateMutability": "payable",
      "type": "function"
    },
    {
      "inputs": [
        {
          "internalType": "address payable",
          "name": "recipient",
          "type": "address"
        },
        {
          "internalType": "uint256",
          "name": "amount",
          "type": "uint256"
        }
      ],
      "name": "sendEtherFromContract",
      "outputs": [],
      "stateMutability": "nonpayable",
      "type": "function"
    },
    {
      "stateMutability": "payable",
      "type": "receive"
    }
  ],
  "bytecode": "0x6080604052348015600f57600080fd5b5061063b8061001f6000396000f3fe60806040526004361061002d5760003560e01c806311610c25146100d25780633382634f146100dc57610082565b36610082573373ffffffffffffffffffffffffffffffffffffffff167f43e08d78302cdf9c94e1ffd293c2a3696139ee41cf3199b6f5eed9c7f6cc6090346040516100789190610314565b60405180910390a2005b3373ffffffffffffffffffffffffffffffffffffffff167f43e08d78302cdf9c94e1ffd293c2a3696139ee41cf3199b6f5eed9c7f6cc6090346040516100c89190610314565b60405180910390a2005b6100da610105565b005b3480156100e857600080fd5b5061010360048036038101906100fe91906103be565b610198565b005b60003411610148576040517f08c379a000000000000000000000000000000000000000000000000000000000815260040161013f9061045b565b60405180910390fd5b3373ffffffffffffffffffffffffffffffffffffffff167f43e08d78302cdf9c94e1ffd293c2a3696139ee41cf3199b6f5eed9c7f6cc60903460405161018e9190610314565b60405180910390a2565b804710156101db576040517f08c379a00000000000000000000000000000000000000000000000000000000081526004016101d2906104c7565b60405180910390fd5b600073ffffffffffffffffffffffffffffffffffffffff168273ffffffffffffffffffffffffffffffffffffffff160361024a576040517f08c379a000000000000000000000000000000000000000000000000000000000815260040161024190610533565b60405180910390fd5b60008273ffffffffffffffffffffffffffffffffffffffff168260405161027090610584565b60006040518083038185875af1925050503d80600081146102ad576040519150601f19603f3d011682016040523d82523d6000602084013e6102b2565b606091505b50509050806102f6576040517f08c379a00000000000000000000000000000000000000000000000000000000081526004016102ed906105e5565b60405180910390fd5b505050565b6000819050919050565b61030e816102fb565b82525050565b60006020820190506103296000830184610305565b92915050565b600080fd5b600073ffffffffffffffffffffffffffffffffffffffff82169050919050565b600061035f82610334565b9050919050565b61036f81610354565b811461037a57600080fd5b50565b60008135905061038c81610366565b92915050565b61039b816102fb565b81146103a657600080fd5b50565b6000813590506103b881610392565b92915050565b600080604083850312156103d5576103d461032f565b5b60006103e38582860161037d565b92505060206103f4858286016103a9565b9150509250929050565b600082825260208201905092915050565b7f426574206d7573742062652067726561746572207468616e2030000000000000600082015250565b6000610445601a836103fe565b91506104508261040f565b602082019050919050565b6000602082019050818103600083015261047481610438565b9050919050565b7f496e73756666696369656e7420636f6e74726163742062616c616e6365000000600082015250565b60006104b1601d836103fe565b91506104bc8261047b565b602082019050919050565b600060208201905081810360008301526104e0816104a4565b9050919050565b7f496e76616c696420726563697069656e74206164647265737300000000000000600082015250565b600061051d6019836103fe565b9150610528826104e7565b602082019050919050565b6000602082019050818103600083015261054c81610510565b9050919050565b600081905092915050565b50565b600061056e600083610553565b91506105798261055e565b600082019050919050565b600061058f82610561565b9150819050919050565b7f5472616e73666572206661696c65640000000000000000000000000000000000600082015250565b60006105cf600f836103fe565b91506105da82610599565b602082019050919050565b600060208201905081810360008301526105fe816105c2565b905091905056fea264697066735822122061c85df8a88bab3fb2953c2ab3d6c5b3bcacf90021e6f4c66b3f010eb6c98b3d64736f6c634300081c0033",
  "linkReferences": {},
  "deployedLinkReferences": {}
}